:10000000A88907200D6C0000316F000021E300007B
:100010001B6C00001B6C00001B6C00001B6C0000C4
:100020000000000000000000000000001B6C000049
:100030001B6C00000000000063E20000C59301009B
:10004000C9A00000F99F000085A10000CFA1000019
:10005000C9A00000F99F000085A10000CFA1000009
:1000600021A500007BA50000717100009D810000AA
:10007000497200008D9200008D9200008D92000068
:100080008D92000000000000000000000000000051
:100090000000000000000000000000000000000060
:1000A0000000000000000000000000000000000050
:1000B0000000000000000000000000000000000040
:1000C0000000000000000000000000000000000030
:10040000FFFFFFFFFFFDFFFFFCFFFFFFFFFFFFFF01
:10041000FCFFFFFFFFFFFFFFFCFFFF00FFFFFF00F0
:10042000FCFF0F20FFFF0F20FCFF7F40FFFF7F40FE
:10043000FCFF0D40FFFF0D40FFFFFFFF000000002D
:1004400000000000000000000000000000000000AC
:10045000000000000000000000000000000000009C
:10046000000000000000000000000000000000008C
:10047000000000000000000000000000000000007C
:10048000000000000000000000000000000000006C
:10049000000000000000000000000000000000005C
:1004A000000000000000000000000000000000004C
:1004B000000000000000000000000000000000003C
:1004C000000000000000000000000000000000002C
:1004D000000000000000000000000000000000001C
:1004E000000000000000000000000000000000000C
:1004F00000000000000000000000000000000000FC
:1005000010B5054C237833B9044B13B10448AFF34D
:1005100000800123237010BD000DFE1F00000000AD
:10052000C0DE0D0008B5034B1BB103490348AFF310
:10053000008008BD00000000040DFE1FC0DE0D009D
:1005400080B483B000AF786039603B681A887B68FC
:100550001A8000BF0C37BD465DF8047B704780B43D
:1005600083B000AF786000BF0C37BD465DF8047BF8
:100570007047000080B590B000AFF860B9607A6055
:10058000BB68B3F900307B63BB68B3F904303B63ED
:10059000BB68B3F90230FB62BB68B3F90630BB62DB
:1005A0003B6B002B66DBBB6A002B65DB364B9B8805
:1005B0001A467B6B934261DA334BDB881A46FB6A3F
:1005C00093425DDA7B6B23EAE3737B62FB6A23EA87
:1005D000E3733B622C4B9B881A463B6B934203DBD5
:1005E000294B9B88013B00E03B6BFB61264BDB8882
:1005F0001A46BB6A934203DB234BDB88013B00E0D6
:10060000BB6ABB6100237B611F4B9B683B613B6AFC
:10061000BB6327E07B6AFB6316E01B4B9B881A4693
:10062000BB6B03FB02F2FB6B13447B617B695B00DA
:100630003A69134479681846FFF782FF7B680233F2
:100640007B60FB6B0133FB63FB69FA6B9A42E4D975
:100650003A6BFB69D31A5B007A6813447B60BB6B0F
:100660000133BB63BB69BA6B9A42D3D9F8684BF0CC
:1006700057F906E000BF04E000BF02E000BF00E061
:1006800000BF4037BD4680BD880DFE1F80B500AF5E
:1006900019480EF025F90346184A1360174B1B68DA
:1006A000032118460EF029F90346002B07D1134BFE
:1006B0001B68134A40F6030118460EF00DFA4FF47A
:1006C000FF4300220F4910484AF0BEFF0F484AF08E
:1006D00079FF0E4B4FF4F0721A800C4B4FF4887276
:1006E0005A800A4B084ADA60084B094A5A6107489F
:1006F0004AF0C6FF00BF80BD74540700980CFF1F6E
:10070000880DFE1F980DFE1F1C0DFE1F380DFE1FCD
:100710007505000080B582B000AF78603960244B69
:100720001B78DBB2012B3CD1224B1868224B1A6894
:10073000012300210EF082F91F4B1B681B78002B50
:1007400031D01D4B1B689B881AB23B681A801A4B2C
:100750001B68DB881AB23B685A80174B1B681B78F2
:10076000022B02D13B6801229A73134B1B681B7842
:10077000032B02D13B6801229A730F4B1B681B7835
:10078000012B02D13B6800229A73094B00221A7098
:10079000084B1B68002241F2076118460EF09CF9D5
:1007A00002E000BF00E000BF0837BD4680BD00BFCB
:1007B000A80CFF1F9C0CFF1FA40CFF1F80B582B06C
:1007C00000AF78603960074B01221A70002241F2B5
:1007D000066178680EF080F9002318460837BD4698
:1007E00080BD00BFA80CFF1F80B584B000AF0346DA
:1007F0000A46FB801346BB8041480EF071F8034661
:10080000404A13603F4B1B68002B05D13E4816F051
:10081000B9FC4FF0FF336FE03A4B1B684FF4807127
:1008200018460EF06AF80346002B05D0374816F03C
:10083000A9FC4FF0FF335FE0082016F019FEF860C6
:10084000304B1B68FA684FF4B05118460EF044F96B
:10085000FB68BB60BB681B78A3F13001BB68013348
:100860001B78A3F13002BB6802331B78303B284869
:1008700016F088FC234B1B68BA1D41F20361184631
:100880000EF02AF91F4B1B683A1D41F2046118460D
:100890000EF022F91B4B1B68FA6841F20161184601
:1008A0000EF01AF9FB685B6819461A4816F06AFCE4
:1008B000FB689B681946184816F064FCFB689B7837
:1008C0001946164816F05EFCF86816F049FE0D4B06
:1008D0001B68134918460EF017F90C21012016F079
:1008E00021FE03460F4A13600E4B1B68002B02D1FA
:1008F0006FF00B0300E0002318461037BD4680BDA3
:10090000785407009C0CFF1F805407009C5407007C
:10091000B0540700C0540700D0540700E05407004B
:10092000BD070000A40CFF1F80B586B000AF1048C3
:100930000FF0E2FE78610F480FF0DEFE03463B60E9
:100940000D4BFB607B697B6003233B723B463B6145
:100950003B1D1946094800F079FC4FF488714FF4AB
:10096000F070FFF741FF002318461837BD4680BDE1
:10097000F4540700FC54070004550700785407009E
:1009800080B582B000AF0B484BF001F8094B012253
:100990001A70084B084A5A6006484BF01BF8034689
:1009A000064A1360FFF7C0FF786000BF0837BD46F6
:1009B00080BD00BFAC0CFF1F15070000A00CFF1F7F
:1009C00080B588B000AFF860B9601346FB71FB6872
:1009D0009B88BB820023FB82BB68FB61FB799BB2D7
:1009E0003B83FB681B6807F11401012218460EF0D7
:1009F00025FC0346012B01D1002301E06FF0FE032B
:100A000018462037BD4680BD80B58AB000AFF8607B
:100A1000B9607A60FB70FB689B883B8200237B8215
:100A2000BB68BB610223BB82FB689B88BB8301233D
:100A3000FB837B687B62FB789BB23B84FB681B6813
:100A400007F11001022218460EF0F8FB0346022BB4
:100A500001D1002301E06FF0FE0318462837BD46A0
:100A600080BD80B586B000AFF860B9601346FB71F9
:100A700081233B7540237B75FB7907F11401BA682C
:100A8000F868FFF7C1FF0346002B02D06FF0FE03AA
:100A900000E0002318461837BD4680BD80B586B0FB
:100AA00000AF786039600723FB7580233B754723CF
:100AB0007B75FB7D07F10C0207F114017868FFF7E5
:100AC000A3FF0346002B02D06FF0FE0312E0BB7BB6
:100AD0001B027A7B1A433B685A603B7C1B02FA7B01
:100AE0001A433B689A607B7C03F00F03DAB23B68E1
:100AF0009A70002318461837BD4680BD90B583B064
:100B000000AF78600B46FB70424A7B68136097F930
:100B10000330414AD35C012B10D197F903303E4A90
:100B20000021D1543B4B196897F9032013465B0011
:100B300013449B000B4401221A700AE0354B1968DC
:100B400097F9032013465B0013449B000B440022DB
:100B50001A70304B196897F9032013465B00134451
:100B60009B00CC1814F0E4F80346A36097F9033017
:100B70002A4A32F91300274B196897F903201346C4
:100B80005B0013449B000B44C2B29A7097F9033088
:100B9000234A32F913001F4B196897F903201346B3
:100BA0005B0013449B000B4482B29A8097F9033098
:100BB0001C4A32F91300174B196897F903201346A2
:100BC0005B0013449B000B4482B2DA80114B19681E
:100BD00097F9032013465B0013449B000B44FA78FB
:100BE0005A7097F903300E4A4FF6FF7122F813102E
:100BF00097F903300B4A4FF6FF7122F8131097F95B
:100C00000330064A4FF6FF7122F8131000BF0C376D
:100C1000BD4690BDDC0CFF1FD40CFF1FD400FE1F8F
:100C2000BC00FE1FC800FE1F90B585B000AFF86085
:100C3000084611461A460346FB720B463B81134693
:100C4000FB803A4AFB68136097F90B30384AD35C53
:100C5000012B0BD1354B196897F90B2013465B001C
:100C600013449B000B4403221A700FE02F4B1968AA
:100C700097F90B2013465B0013449B000B440222A0
:100C80001A7097F90B302A4A0121D154274B196861
:100C900097F90B2013465B0013449B00CC1814F00B
:100CA00047F80346A360214B196897F90B201346B8
:100CB0005B0013449B000B443A8CD2B29A701B4BDE
:100CC000196897F90B2013465B0013449B000B44F3
:100CD0003A899A80154B196897F90B2013465B00E7
:100CE00013449B000B44FA88DA80104B196897F97B
:100CF0000B2013465B0013449B000B44FA7A5A7096
:100D000097F90B300B493A8921F8132097F90B30EA
:100D10000949FA8821F8132097F90B3007493A8CD2
:100D200021F8132000BF1437BD4690BDDC0CFF1F17
:100D3000D40CFF1FBC00FE1FC800FE1FD400FE1F06
:100D400080B596B002AFF860B9607A60002387F88A
:100D50004330002387F84D3000237B6107F11803EF
:100D60002422002118466CF009FD002387F84C303E
:100D70000023A7F84A300023A7F848300023A7F83B
:100D80004630812387F83C304E2387F83D3007F109
:100D9000430207F13C010123A248FFF735FE034659
:100DA000002B02D000237B6027E197F84330002B13
:100DB00002D100237B6020E197F843305BB2002B27
:100DC00002DB00237B6018E197F8433003F00F0348
:100DD00087F84D3097F84D30052B02D900237B6002
:100DE0000BE1812387F83C304F2387F83D307B6847
:100DF000DBB21A4692001344DBB207F1140207F18A
:100E00003C018848FFF700FE0346002B02D0002378
:100E10007B60F2E0844B1B7897F84D209A424DD2CC
:100E2000002387F84F3043E0002387F84E3032E04C
:100E300097F84E30DB0007F15002134413F83C3CA6
:100E40005BB203F00F0387F84C3097F94C30002B5E
:100E50001BDC97F84F30754AD35697F94C209A42CD
:100E600020D097F84E2097F84D30013B9A420DDB89
:100E700097F84F306D4AD35687F8453097F945308B
:100E80001946B868FFF73AFE00E000BF97F84E3009
:100E9000013387F84E3097F84E2097F84D309A423C
:100EA000C6D300E000BF97F84F30013387F84F30CA
:100EB0005D4B1B7897F84F209A42B5D397F84D3089
:100EC000002B7BD0002387F84F3070E097F84F302D
:100ED000DB0087F8443097F8443007F150021344A0
:100EE00013F83C3C5BB203F00F0387F84C3097F9E2
:100EF0004C30002B55DC97F84F304C4997F84C207C
:100F0000CA5497F84430013307F15002134413F8E0
:100F10003C3C1AB297F84430023307F150010B44BD
:100F200013F83C3C1B021BB21343A7F84A3097F856
:100F30004430033307F15002134413F83C3C1AB217
:100F400097F84430043307F150010B4413F83C3C4C
:100F50001B021BB21343A7F8483097F844300533FF
:100F600007F15002134413F83C3C1AB297F844308E
:100F7000063307F150010B4413F83C3C1B021BB233
:100F80001343A7F84630B7F94800B7F94A2097F954
:100F90004C10B7F9463000930346B868FFF744FE9B
:100FA00000E000BF97F84F30013387F84F3097F8D3
:100FB0004F2097F84D309A4288D31AE01A4B1B788D
:100FC000002B16D0002387F84F300CE097F84F30F5
:100FD000164AD3561946B868FFF790FD97F84F3078
:100FE000013387F84F30104B1B7897F84F209A4207
:100FF000ECD30D4A97F84D301370812387F84030B9
:101000004E2387F84130002387F8423007F1400330
:10101000032219460348FFF7D3FC7B681846503774
:10102000BD4680BDCC0CFF1FE00CFF1FE40CFF1F72
:1010300080B58AB000AFF860B9607A60BB68B3F57C
:10104000B05F06D1062279686F48FFF70AFD0346B4
:10105000D5E0BB6841F20162934205D179686A48E4
:10106000FFF71CFD0346CAE0002387F82730BC21A8
:10107000012016F057FA38623B6A002B02D16FF05C
:10108000FE03BCE03B6A80221A703B6A01334722B0
:101090001A703B6A02335D4A18461146BA231A4653
:1010A0006CF056FABB68A3F5B053023B032B6DD826
:1010B00001A252F823F000BF3D110000C91000004A
:1010C000F9100000291100007B681B88BB83BB8BD3
:1010D0001B0A9AB23B6A0433D2B21A703B6A0333DA
:1010E000BA8BD2B21A703B6A1A79484B9A703B6A33
:1010F000DA78464B5A704AE07B681B88FB83FB8B8F
:101100001B0A9AB23B6A0633D2B21A703B6A0533A5
:10111000FA8BD2B21A703B6A9A793C4B1A713B6ACD
:101120005A793A4BDA7032E03B6A08331A783B6AF4
:10113000083382F00802D2B21A7028E07B681B885C
:101140007B837B8B012B0CD0B3F5807F1CD13B6A5A
:1011500008331A783B6A083322F00302D2B21A70BD
:1011600013E03B6A08331A783B6A083322F0030223
:10117000D2B21A703B6A08331A783B6A083342F0DD
:101180000202D2B21A7000E000BF00E000BFBC2231
:10119000396A1D48FFF714FC0346002B02D04FF0BC
:1011A000FF332CE080233B75FF237B750023BB7549
:1011B000022387F827300DE0BA7D97F82730396A87
:1011C0000B441B781344DBB2BB7597F8273001330F
:1011D00087F8273097F82730BB2BEDD9BB7D5B42D2
:1011E000DBB2BB750123FB7507F11403042219461A
:1011F0000548FFF7E5FB386A16F0B2F900231846F8
:101200002837BD4680BD00BFCC0CFF1F0000FE1F6D
:1012100080B586B000AF78600B46FB7000233B754D
:10122000FB789BB23B8100237B8107F114033B6178
:101230000023BB8107F108030122194678680DF0ED
:10124000FDFF034618461837BD4680BD80B584B003
:1012500000AF786039600023FB60682016F008F961
:10126000F860FB68002B02D16FF0FE0374E0682287
:101270000021F86815F09AFC3B68DB681B780021B8
:1012800018460FF0FFF93B681B68002118460FF065
:10129000F9F93B68DB681B78002118460FF006FA65
:1012A000C82017F0D0FB3B68DB681B78012118468B
:1012B0000FF0FCF90A2017F0C6FB3B681B68012100
:1012C00018460FF0F3F9642017F0BDFB3B689B68EC
:1012D00018460DF005FB0346214A1360204B1B689E
:1012E000002B02D16FF0FE0336E01D4B1B6803217B
:1012F00018460DF002FB0346002B02D06FF0FE03F0
:101300002AE0174B1B6814211846FFF781FFB860CD
:10131000BB68012B03D1124B14229A8002E0104BC0
:101320005D229A80FB68012283F84420FB68012239
:1013300083F84520FB68503310223968184615F0B1
:1013400099FCFB68074A1A6600234FF4807279689B
:10135000F86810F023FC002318461037BD4680BD06
:10136000CC0CFF1FE000FE1F80B500AF4EF04CFB21
:101370000346184680BD80B582B000AF78601EF08D
:1013800033FAFFF783F9FFF7FBFA00F0ADF8FFF748
:10139000EBFF052017F063FBF9E7000080B586B08E
:1013A00004AF00230393142302934FF400530193DB
:1013B0000B4B009300230B4A0B490C4817F096FA8D
:1013C00078607B68002B02D04FF0FF3303E00748C2
:1013D00017F0B8FA002318460837BD4680BD00BF95
:1013E000800DFF1F771300000C550700EC0CFF1F4A
:1013F00080B582B000AF78607B681B6818466CF0DF
:101400006DF87B689B6818466CF068F87B68002272
:101410001A607B6800229A6000BF0837BD4680BD15
:1014200080B582B000AF78607B68DB6818466CF0EE
:1014300055F87B6800221A607B6800225A607B683E
:1014400000229A607B680022DA6000BF0837BD4640
:1014500080BD000080B582B000AF0122044905487C
:1014600014F05AFC78607B68002B0837BD4680BDBD
:10147000145D0700802DFF1F80B582B000AF0122F0
:101480000449054814F048FC78607B68002B083755
:10149000BD4680BD205D0700A42DFF1F80B500AFB5
:1014A0000B4B1B6801220B49184614F0F4F90A4B48
:1014B0001B6801220949184614F0EDF9084B1B6816
:1014C00001220849184614F0E6F900BF80BD00BFAC
:1014D000C82DFF1F2C5D0700CC2DFF1F385D0700B6
:1014E000D02DFF1F445D070080B500AF04F04AFC1B
:1014F00000BF80BD80B485B000AF78607B681B0AF8
:101500009BB223F4FF6323F007039AB27B685B0965
:101510009BB203F4FC639BB213439AB27B68DB0873
:101520009BB203F01F039BB213439BB2BB81BB89E9
:1015300018461437BD465DF8047B704790B583B0FC
:1015400000AF00201EF09EF90346BE4A1360BD4B5B
:101550001B68102118461EF0FDF9BA4B1C68BA48EA
:10156000FFF7C8FF034600221946204627F0F3FB89
:10157000B44B1B680022FF21184627F000FCB14B3A
:101580001B6818461EF07EF90346B04A1360AF4B45
:101590001B684FF4F171184621F0DCFAAB4B1B6865
:1015A0001C21184621F0FBFAA84B1B6801211846A4
:1015B00021F032F8A54B1B686FF07701184621F037
:1015C00050F8A24B1B680921184621F0D3FB9F4B12
:1015D0001B68122118461EF0BDF99C4B1B680022A7
:1015E0000021184627F0C4FC984B1C689848FFF768
:1015F00081FF034600221946204627F0ACFB934B9F
:101600001B680022FF21184627F0B9FB8F4B1B688F
:1016100000220021184627F025FC8C4B1B68002275
:101620000321184627F0CBFC884B1B68002232218F
:10163000184627F0B1FC834B1B68184657F0D6FAC2
:101640000346844A1360834B1B6842F2D1711846EB
:1016500021F080FA7F4B1B6842F2D171184621F0CD
:101660009EFA7C4B1B680221184620F0D5FF794B6F
:101670001B686FF07701184620F0F3FF754B1B686D
:101680000921184621F076FB724B1B6872491846F7
:1016900057F0C0FA6F4B1B68022118461EF006F97E
:1016A0006C4B1C686D48FFF725FF03460022194666
:1016B000204627F0FEFB674B1B680022FF211846DF
:1016C00027F00BFC634B1B6800220121184627F012
:1016D00029FC5C4B1B68184656F086F90346604AA5
:1016E00013605F4B1B685F49184656F091F95C4BDD
:1016F0001B6842F2D171184621F02CFA584B1B6836
:1017000042F2D171184621F04AFA554B1B686FF02E
:10171000E001184620F080FF514B1B686FF0770105
:10172000184620F09EFF4E4B1B680921184621F0F9
:1017300021FB4B4B1B684C4918461EF0B7F8484B31
:101740001B68102118461EF005F9454B1C686FF008
:101750007F40FFF7CFFE034600221946204627F0C0
:1017600021FB384B1B68184656F03EF903463F4AAA
:1017700013603E4B1B683E49184656F049F93B4BF7
:101780001B6842F2D171184621F0E4F9374B1B680F
:1017900042F2D171184621F002FA344B1B68D02175
:1017A000184620F039FF314B1B686FF0790118465D
:1017B00020F057FF2D4B1B680921184621F0DAFA5B
:1017C0002A4B1B684FF4803118461EF06FF8274BE8
:1017D0001B68102118461EF0BDF81A4B1B681846EE
:1017E00056F002F90346234A1360224B1B68224934
:1017F000184656F00DF91F4B1B6842F2D17118467E
:1018000021F0A8F91B4B1B6842F2D171184621F058
:10181000C6F9184B1B68E521184620F0FDFE154B54
:101820001B686FF07901184620F01BFF114B1B68F5
:101830000921184621F09EFA0E4B1B684FF48031A7
:1018400018461BE0F02DFF1F625F5F00F42DFF1FA5
:1018500074747C00F82DFF1FF4690C00F4E40A0096
:10186000FC2DFF1F00F3090002000100002EFF1FE6
:1018700010F60900042EFF1F506007001EF016F836
:10188000C14B1B68102118461EF064F8BF4B1B6843
:10189000184657F0ABF90346BD4A1360BC4B1B68B2
:1018A00042F2D171184621F055F9B94B1B6842F24A
:1018B000D171184621F073F9B54B1B689621184673
:1018C00020F0AAFEB24B1B686FF07801184620F09A
:1018D000C8FEAF4B1B680921184621F04BFAAC4BF0
:1018E0001B68AC49184657F095F9A94B1B680122B3
:1018F0001146184657F0BEFAA54B1B680221184640
:101900001DF0D4FFA24B1B680022A349184627F004
:10191000F7FA9E4B1B6818461DF0B4FF03469F4A1A
:1019200013609E4B1B686721184621F013F99B4BEF
:101930001B68C721184621F032F9984B1B686FF0DD
:10194000BA01184620F068FE944B1B686FF0060140
:10195000184620F086FE914B1B680921184621F09D
:1019600009FA8E4B1B68012118461DF09FFF8B4B17
:101970001B6800220021184627F0FAFA874B1C68E2
:101980000020FFF7B7FD034600221946204627F046
:10199000E2F9824B1B680022FF21184627F0EFF97D
:1019A0007E4B1C687E48FFF7A5FD034600221946C2
:1019B000204627F030FA794B1B680022FF21184699
:1019C00027F03DFA754B1B6800220221184627F0CC
:1019D00049FA724B1B68184654F0A8FB0346714A3B
:1019E0001360704B1B687049184654F0CAFB6D4B6E
:1019F0001B686E49184654F0ADFB6A4B1B686521A5
:101A0000184621F0A7F8674B1B6842F2D1711846BF
:101A100021F0C5F8634B1B680021184620F0FCFD3F
:101A2000604B1B686FF04E01184620F01AFE5D4BAC
:101A30001B680921184621F09DF95A4B1B684FF489
:101A4000806118461DF032FF564B1C685848FFF75E
:101A500051FD034600221946204627F02AFA514B31
:101A60001B680022FF21184627F037FA4D4B1B68F0
:101A700000220121184627F068FA4A4B1B68002211
:101A80000121184627F04EFA464B1B6800224949AF
:101A9000184627F035FA434B1B68002200211846F0
:101AA00027F066FA3F4B1C684348FFF723FD0346C7
:101AB00000221946204627F04EF93A4B1B680022B7
:101AC000FF21184627F05BF9364B1C680020FFF712
:101AD00011FD034600221946204627F09CF9314BA0
:101AE0001B680022FF21184627F0A9F92D4B1B681F
:101AF00000220121184627F0B5F92A4B1B68002265
:101B00000121184627F0C2F9264B1B6800220F213D
:101B1000184627F0D0F8234B1B68002205211846F1
:101B200027F0DDF81F4B1B6800220A21184627F01A
:101B30009AF81C4B1B6800220A21184627F0A7F8C8
:101B4000184B1B684FF400320121184627F0EAF9C0
:101B5000144B1B684FF400321649184627F0D0F991
:101B6000104B1B68184654F0FEFB04461348FFF761
:101B7000C1FC034600221946204627F09AF9094B7A
:101B80001B6818461CE000BF042EFF1FF02DFF1F2E
:101B9000082EFF1F086A0C0074D20C000C2EFF1FC9
:101BA000253D1A00102EFF1F1C6A0C00646A0C00F1
:101BB00040FD02004CFF0C00625F5F000202020069
:101BC00054F0D1FB03460022FF21184627F085F987
:101BD000C74B1B68184654F0C6FB0346002202217F
:101BE000184627F0B2F9C24B1B68184654F0BBFBED
:101BF00003460022BF49184627F082F9BC4B1B68F8
:101C0000184654F0B0FB034600220021184627F086
:101C1000AFF9B74B1B68184654F0A5FB0446B6480D
:101C2000FFF768FC034600221946204627F093F888
:101C3000AF4B1B68184654F096FB03460022FF2169
:101C4000184627F09CF8AA4B1B68184654F08BFBEB
:101C5000034600220121184627F004F9A74B1B6810
:101C6000184654F063FA0346A54A1360A44B1B6858
:101C7000A449184654F085FAA14B1B68A24918469E
:101C800054F068FA9E4B1B686521184620F062FFED
:101C90009B4B1B6842F2D171184620F080FF984B95
:101CA0001B680021184620F0B7FC954B1B686FF0AD
:101CB0002901184620F0D5FC914B1B6809211846D4
:101CC00021F058F88E4B1B684FF4806118461DF0C8
:101CD000EDFD8B4B1C688D48FFF70CFC0346002282
:101CE0001946204627F0E5F8854B1B680022FF21A6
:101CF000184627F0F2F8824B1B6800220221184692
:101D000027F023F97E4B1B6800220121184627F09B
:101D100009F97B4B1B6800227649184627F0F0F83A
:101D2000774B1B6800220021184627F021F9744BDD
:101D30001C687748FFF7DEFB034600221946204661
:101D400027F009F86E4B1B680022FF21184627F088
:101D500016F86B4B1C680020FFF7CCFB03460022F3
:101D60001946204627F057F8654B1B680022FF21D3
:101D7000184627F064F8624B1B68002201211846C0
:101D800027F070F85E4B1B6800220F21184627F0E1
:101D90007DF85B4B1B6800220F21184626F08BFF55
:101DA000574B1B6800220521184626F098FF544B1C
:101DB0001B6800220A21184626F055FF504B1B686D
:101DC00000220A21184626F062FF4D4B1B684FF493
:101DD00000320121184627F0A5F8494B1B684FF443
:101DE00000324449184627F08BF8454B1B681846CB
:101DF00054F0B9FA04464748FFF77CFB034600223B
:101E00001946204627F055F83D4B1B68184654F0FC
:101E1000AAFA03460022FF21184627F05EF8384B45
:101E20001B68184654F09FFA034600220221184608
:101E300027F08BF8324B1B68184654F094FA03468F
:101E400000222C49184627F05BF82D4B1B681846DA
:101E500054F089FA034600220021184627F088F83A
:101E6000274B1B68184654F07EFA04462248FFF7B9
:101E700041FB034600221946204626F06CFF204B0A
:101E80001B68184654F06FFA03460022FF211846DB
:101E900026F075FF1A4B1B68184654F064FA034687
:101EA00000220121184626F0DDFF144B1B6818465E
:101EB0005DF0BCF90346184A1360174B1B68652197
:101EC000184620F047FE144B1B6842F2D1711846A9
:101ED00020F065FE104B1B680021184620F09CFB8B
:101EE0000D4B1B686FF00401184620F0BAFB15E09B
:101EF000102EFF1F4CFF0C00A0A0AC000C2EFF1FEB
:101F0000142EFF1F706A0C00B06A0C0040FD020026
:101F1000625F5F0002020200182EFF1FC24B1B68A7
:101F20000921184620F026FFBF4B1B68BF49184601
:101F30005DF014FCBC4B1B68012118465DF01FFDD1
:101F4000B94B1C680020FFF7D5FA0346002219465A
:101F5000204626F0AEFFB44B1B680022FF21184636
:101F600026F0BBFFB04B1B6800220221184626F06A
:101F7000ECFFAD4B1B680022AD49184626F0C0FFB0
:101F8000A94B1B6800220021184626F0F1FFA64B42
:101F90001C68A848FFF7AEFA0346002219462046FF
:101FA00026F0D9FEA04B1B680022FF21184626F020
:101FB000E6FE9D4B1C680020FFF79CFA03460022BA
:101FC0001946204626F027FF974B1B680022FF2169
:101FD000184626F034FF944B1B6800220121184656
:101FE00026F040FF904B1B6800220F21184626F078
:101FF0004DFF8D4B1B6800220021184626F05BFE2A
:10200000894B1B6800220021184626F068FE864B8B
:102010001B6800220A21184626F025FE824B1B6809
:1020200000220A21184626F032FE834B1B68184610
:102030005DF0FCF80346814A1360804B1B68652104
:10204000184620F087FD7D4B1B6842F2D17118467F
:1020500020F0A5FD794B1B680021184620F0DCFA22
:10206000764B1B682021184620F0FBFA734B1B6847
:102070000921184620F07EFE704B1B6870491846F7
:102080005DF06CFB6D4B1B68012118465DF077FC21
:102090006A4B1C680020FFF72DFA03460022194600
:1020A000204626F006FF654B1B680022FF211846DC
:1020B00026F013FF614B1B6800220221184626F010
:1020C00044FF5E4B1B6800225949184626F018FF52
:1020D0005A4B1B6800220021184626F049FF574B37
:1020E0001C685448FFF706FA0346002219462046AA
:1020F00026F031FE514B1B680022FF21184626F0C6
:102100003EFE4E4B1C680020FFF7F4F90346002208
:102110001946204626F07FFE484B1B680022FF210F
:10212000184626F08CFE454B1B68002201211846FC
:1021300026F098FE414B1B6800220F21184626F01E
:10214000A5FE3E4B1B6800220021184626F0B3FD79
:102150003A4B1B6800220021184626F0C0FD374B81
:102160001B6800220A21184626F07DFD334B1B68B0
:1021700000220A21184626F08AFD2F4B1B681846BC
:102180005DF054F803462F4A13602E4B1B686521FF
:10219000184620F0DFFC2B4B1B6842F2D171184629
:1021A00020F0FDFC274B1B680021184620F034FA74
:1021B000244B1B684521184620F053FA214B1B681D
:1021C0000921184620F0D6FD1E4B1B681E491846F3
:1021D0005DF0C4FA1B4B1B68012118465DF0CFFB74
:1021E000184B1B68142118461DF0B4FB154B1C68D6
:1021F0000020FFF77FF9034600221946204626F00B
:1022000058FE104B1B680022FF21184626F065FE81
:102210000C4B1B6800220221184626F096FE094B43
:102220001B68002212E000BF182EFF1FBC6A0C00C2
:102230004CFF0C00625F5F000C2EFF1F1C2EFF1F67
:10224000CC6A0C00202EFF1FD86A0C00C349184628
:1022500026F056FEC24B1B6800220021184626F0CD
:1022600087FEBF4B1C68BF48FFF744F903460022B6
:102270001946204626F06FFDB94B1B680022FF214E
:10228000184626F07CFDB64B1C680020FFF732F99B
:10229000034600221946204626F0BDFDB04B1B68C0
:1022A0000022FF21184626F0CAFDAD4B1B68002214
:1022B0000121184626F0D6FDA94B1B6800220F21EC
:1022C000184626F0E3FDA64B1B68002200211846A5
:1022D00026F0F1FCA24B1B6800220021184626F0D4
:1022E000FEFC9F4B1B6800220A21184626F0BBFC0F
:1022F0009B4B1B6800220A21184626F0C8FC984B0D
:102300001C689948FFF7F6F803464FF40022194677
:10231000204626F0CEFD924B1B684FF40022FF2191
:10232000184626F0DAFD914B1B6818465CF07EFFDC
:1023300003468F4A13608E4B1B686521184620F0B8
:1023400009FC8B4B1B6842F2D171184620F027FC28
:10235000874B1B680021184620F05EF9844B1B68F0
:102360006A21184620F07DF9814B1B680921184627
:1023700020F000FD7E4B1B687E4918465DF0EEF9AB
:102380007B4B1B68012118465DF0F9FA784B1B68FE
:10239000142118461DF0DEFA754B1C680020FFF76B
:1023A000A9F8034600221946204626F082FD704B0C
:1023B0001B680022FF21184626F08FFD6C4B1B681E
:1023C00000220221184626F0C0FD694B1B6800223E
:1023D0006249184626F094FD654B1B6800220021D7
:1023E000184626F0C5FD624B1C685E48FFF782F870
:1023F000034600221946204626F0ADFC5C4B1B68C4
:102400000022FF21184626F0BAFC594B1C68002018
:10241000FFF770F8034600221946204626F0FBFC21
:10242000534B1B680022FF21184626F008FD504B35
:102430001B6800220121184626F014FD4C4B1B6836
:1024400000220F21184626F021FD494B1B6800226F
:102450000021184626F02FFC454B1B680022002166
:10246000184626F03CFC424B1B6800220A21184605
:1024700026F0F9FB3E4B1B6800220A21184626F085
:1024800006FC3B4B1C683848FFF734F803464FF412
:1024900000221946204626F00CFD354B1B684FF4F0
:1024A0000022FF21184626F018FD334B1B68184602
:1024B00056F09CFB0346314A1360304B1B6842F2D6
:1024C000D171184620F046FB2C4B1B6842F2D171AB
:1024D000184620F064FB294B1B684321184620F066
:1024E0009BF8264B1B686FF05B01184620F0B9F88B
:1024F000224B1B680921184620F03CFC1F4B1B682F
:102500001F49184656F086FB1C4B1B681D49184690
:102510001DF0CCF9194B1B68102118461DF01AFA52
:10252000164B1B680121184622F038FD134B1C681E
:102530001548FEF7DFFF034600221946204626F025
:10254000B8FC0E4B1B680022FF21184626F0C5FC84
:102550000A4B1B680022022118E000BF4CFF0C0050
:10256000202EFF1F625F5F00A7F30D000C2EFF1FE0
:10257000242EFF1FE46A0C00F02DFF1F282EFF1FE2
:10258000F06A0C0001408000FCFCFD00184626F0BB
:10259000DCFCBF4B1B680022BE49184626F0B0FC8D
:1025A000BD4B1B6818465CF041FE0346BB4A1360F6
:1025B000BA4B1B684FF4B971184620F0CBFAB74BF1
:1025C0001B68A921184620F0EAFAB44B1B68372192
:1025D000184620F021F8B14B1B680821184620F05E
:1025E00040F8AE4B1B680921184620F0C3FBAB4BEB
:1025F0001B68AB4918465DF019F8A84B1B68A84941
:1026000018465DF0ABF8A54B1B68012118461DF07C
:102610004DF9A24B1C68A348FEF76CFF034600224D
:102620001946204626F045FC9C4B1B680022FF21E2
:10263000184626F052FC994B1B68002202211846CE
:1026400026F083FC954B1B6800229249184626F021
:1026500057FC924B1B6800220021184626F088FC8C
:102660008E4B1C680020FEF745FF034600221946EA
:10267000204626F070FB894B1B680022FF2118467C
:1026800026F07DFB854B1C680020FEF733FF0346D8
:1026900000221946204626F0BEFB804B1B68002214
:1026A000FF21184626F0CBFB7C4B1B680022012142
:1026B000184626F0D7FB794B1B68002200211846EC
:1026C00026F0F9FA754B1B6800220021184626F007
:1026D00006FB724B1B6800221421184626F0C3FA31
:1026E0006E4B1B6800220321184626F0D0FA6B4B74
:1026F0001B6800220021184626F005FB674B1B686B
:1027000000220021184626F012FB634B1B68184676
:102710001DF0B8F80346644A1360634B1B68E02160
:10272000184620F017FA604B1B687E21184620F0EF
:1027300036FA5D4B1B68122118461FF06DFF5A4B8D
:102740001B686FF02B0118461FF08BFF564B1B6860
:102750000921184620F00EFB534B1B680121184637
:102760001DF0A4F8504B1B68122118461DF0F2F81A
:102770004D4B1B6800220021184626F0F9FB4A4BFE
:102780001C684A48FEF7B6FE03460022194620465A
:1027900026F0E1FA444B1B680022FF21184626F080
:1027A000EEFA414B1C684248FEF7A4FE03460022A5
:1027B0001946204626F02FFB3B4B1B680022FF21C9
:1027C000184626F03CFB384B1B68002202211846B5
:1027D00026F048FB344B1B68184656F007FA0346B0
:1027E000344A1360334B1B6842F2D171184620F013
:1027F000B1F9304B1B6842F2D171184620F0CFF985
:102800002C4B1B686FF0010118461FF005FF294B88
:102810001B686FF0340118461FF023FF254B1B681F
:102820000921184620F0A6FA224B1B6822491846B7
:1028300056F0F0F91F4B1C682048FEF75BFE03467C
:1028400000221946204626F034FB1A4B1B68002252
:10285000FF21184626F041FB164B1B6800220D494C
:10286000184626F04DFB104B1B68184650F0A6FE8C
:102870000346134A1360124B1B68DC21184620F0F4
:1028800069F90F4B1B681721184620F088F919E0E9
:10289000282EFF1F4CFF0C00F02DFF1F2C2EFF1FBA
:1028A000106B0C00FCFCFC00302EFF1F625F5F0011
:1028B00085F40800342EFF1F1C6B0C00F7F7FB009B
:1028C000382EFF1FBF4B1B68002118461FF0A4FEC7
:1028D000BC4B1B68312118461FF0C3FEB94B1B6867
:1028E0000921184620F046FAB64B1B684FF4806168
:1028F00018461CF0DBFFB34B1B68102118461DF077
:1029000029F8B04B1B6800220821184626F030FB3E
:10291000AC4B1C68AC48FEF7EDFD0346002219469F
:10292000204626F018FAA74B1B680022FF21184604
:1029300026F025FAA34B1C68A448FEF7DBFD0346EE
:1029400000221946204626F066FA9E4B1B6800229C
:10295000FF21184626F073FA9A4B1B6800220121CA
:10296000184626F07FFA974B1B6800220F21184665
:1029700026F08CFA964B1B68184656F037F903463A
:10298000944A1360934B1B6842F2D171184620F0B1
:10299000E1F8904B1B6842F2D171184620F0FFF825
:1029A0008C4B1B686FF0010118461FF035FE894BF8
:1029B0001B68312118461FF054FE864B1B68092105
:1029C000184620F0D7F9834B1B688349184656F008
:1029D00021F9804B1C688148FEF78CFD03460022DC
:1029E0001946204626F065FA7A4B1B680022FF2123
:1029F000184626F072FA774B1B6800227849184671
:102A000026F07EFA724B1B68184654F0EDFF034621
:102A1000744A1360734B1B687349184654F0F8FFEF
:102A2000704B1B6842F2D171184620F093F86D4B41
:102A30001B6842F2D171184620F0B1F8694B1B684F
:102A4000662118461FF0E8FD664B1B686FF03401E5
:102A500018461FF006FE634B1B680921184620F03C
:102A600089F9604B1B68614918461CF01FFF5D4BDC
:102A70001B68102118461CF06DFF554B1B6818464B
:102A80001CF000FF03465A4A1360594B1B68DC21B7
:102A9000184620F05FF8564B1B685121184620F06D
:102AA0007EF8534B1B68002118461FF0B5FD504BB4
:102AB0001B686FF0020118461FF0D3FD4C4B1B68DA
:102AC0000921184620F056F9494B1B681021184679
:102AD0001CF040FF464B1B6800220021184626F0E0
:102AE00047FA434B1C680020FEF704FD0346002212
:102AF0001946204626F02FF93D4B1B680022FF2186
:102B0000184626F03CF93A4B1C683A48FEF7F2FCAE
:102B1000034600221946204626F07DF9344B1B68F7
:102B20000022FF21184626F08AF9314B1B6800224B
:102B30000121184626F096F92D4B1B68184656F0D1
:102B400055F803462C4A13602B4B1B6842F2D17197
:102B500018461FF0FFFF284B1B6842F2D171184640
:102B600020F01DF8244B1B686FF0470118461FF03A
:102B700053FD214B1B686FF0190118461FF071FDC2
:102B80001D4B1B680921184620F0F4F81A4B1B68EE
:102B90001A49184656F03EF8174B1C686FF07F40F4
:102BA000FEF7A8FC034600221946204626F081F9CC
:102BB000114B1B680022FF21184626F08EF90E4BA0
:102BC0001B681DE0382EFF1F625F5F003B3B40002B
:102BD000302EFF1F3C2EFF1F306B0C00FAF8150043
:102BE0004CFF0C00402EFF1F606307000200010035
:102BF000442EFF1F58421500482EFF1F3C6B0C004F
:102C00000022C049184626F07BF9BF4B1B681846C6
:102C100055F0ECFF0346BD4A1360BC4B1B6842F203
:102C2000D17118461FF096FFB84B1B6842F2D17164
:102C300018461FF0B4FFB54B1B686FF047011846EC
:102C40001FF0EAFCB14B1B684FF0FF3118461FF034
:102C500008FDAE4B1B680921184620F08BF8AB4BE2
:102C60001B68AB49184655F0D5FFA84B1C686FF0A0
:102C70007F40FEF73FFC034600221946204626F01F
:102C800018F9A24B1B680022FF21184626F025F9EF
:102C90009E4B1B6800229B49184626F031F99A4B3F
:102CA0001B68184655F0A2FF03469A4A1360994BD9
:102CB0001B6842F2D17118461FF04CFF954B1B6800
:102CC00042F2D17118461FF06AFF924B1B686FF0F9
:102CD000460118461FF0A0FC8E4B1B681B211846AE
:102CE0001FF0BFFC8B4B1B680921184620F042F8EF
:102CF000884B1B688849184655F08CFF854B1C682B
:102D00006FF07F40FEF7F6FB03460022194620468F
:102D100026F0CFF87F4B1B680022FF21184626F0D3
:102D2000DCF87C4B1B6800227649184626F0E8F850
:102D3000754B1B6818465CF079FA0346774A1360B6
:102D4000764B1B68892118461FF004FF734B1B68E4
:102D500042F2D17118461FF022FF704B1B682421EC
:102D600018461FF059FC6D4B1B686FF01701184691
:102D70001FF077FC694B1B68092118461FF0FAFF0A
:102D8000664B1B68664918465CF0E8FC634B1B68A1
:102D9000012118465CF0F3FD604B1C680020FEF733
:102DA000A9FB034600221946204626F082F85B4B19
:102DB0001B680022FF21184626F08FF8574B1B682E
:102DC00000220221184626F0C0F8544B1B6800224E
:102DD0004C49184626F094F8504B1B6800220021FD
:102DE000184626F0C5F84D4B1C684E48FEF782FB8E
:102DF000034600221946204625F0ADFF474B1B68CD
:102E00000022FF21184625F0BAFF444B1C684648B3
:102E1000FEF770FB034600221946204625F0FBFF13
:102E20003E4B1B680022FF21184626F008F83B4B5A
:102E30001B6800220121184626F014F8374B1B6846
:102E400000220F21184626F021F8344B1B6800227F
:102E50000021184625F02FFF304B1B68002200216F
:102E6000184625F03CFF2D4B1B6800220521184613
:102E700025F0F9FE294B1B6800220521184625F094
:102E800006FF214B1B6818465CF0D0F90346274A21
:102E90001360264B1B68892118461FF05BFE234BED
:102EA0001B6842F2D17118461FF079FE1F4B1B6858
:102EB000242118461FF0B0FB1C4B1B68012118464B
:102EC0001FF0CFFB194B1B68092118461FF052FF5A
:102ED000164B1B68124918465CF040FC134B1B68EC
:102EE000012118465CF04BFD104B1C680020FEF7DA
:102EF00001FB034600221946204625F0DAFF0B4B62
:102F00001B6815E074D20C00442EFF1F4C2EFF1FCF
:102F1000486B0C00502EFF1F546B0C00542EFF1FEB
:102F2000606B0C00625F5F0085B91A00582EFF1FAE
:102F30000022FF21184625F0D0FFC24B1B6800225B
:102F40000221184626F001F8BE4B1B680022BE493C
:102F5000184625F0D5FFBB4B1B6800220021184600
:102F600026F006F8B74B1C68B848FEF7C3FA0346CC
:102F700000221946204625F0EEFEB24B1B680022C7
:102F8000FF21184625F0FBFEAE4B1C68B048FEF74B
:102F9000B1FA034600221946204625F03CFFA94B12
:102FA0001B680022FF21184625F049FFA54B1B682E
:102FB00000220121184625F055FFA24B1B68002274
:102FC0000F21184625F062FF9E4B1B68002200214E
:102FD000184625F070FE9B4B1B6800220021184606
:102FE00025F07DFE974B1B6800220521184625F031
:102FF0003AFE944B1B6800220521184625F047FE37
:10300000944B1B6818465CF011F90346924A136012
:10301000914B1B68892118461FF09CFD8E4B1B6845
:1030200042F2D17118461FF0BAFD8B4B1B68242168
:1030300018461FF0F1FA884B1B681A2118461FF03A
:1030400010FB854B1B68092118461FF093FE824B2D
:103050001B68824918465CF081FB7F4B1B6801218D
:1030600018465CF08CFC7C4B1C680020FEF742FA92
:10307000034600221946204625F01BFF764B1B68AD
:103080000022FF21184625F028FF734B1B68002201
:103090000221184625F059FF6F4B1B6800226A4930
:1030A000184625F02DFF6C4B1B68002200211846A6
:1030B00025F05EFF684B1C686448FEF71BFA034668
:1030C00000221946204625F046FE634B1B6800226D
:1030D000FF21184625F053FE5F4B1C685C48FEF745
:1030E00009FA034600221946204625F094FE5A4B61
:1030F0001B680022FF21184625F0A1FE564B1B68D5
:1031000000220121184625F0ADFE534B1B6800221A
:103110000F21184625F0BAFE4F4B1B6800220021F4
:10312000184625F0C8FD4C4B1B68002200211846AC
:1031300025F0D5FD484B1B6800220521184625F0D7
:1031400092FD454B1B6800220521184625F09FFD86
:10315000434B1B6818461CF095FB0346414A13601D
:10316000404B1B68E02118461FF0F4FC3D4B1B68E8
:103170007E2118461FF013FD3A4B1B68122118469A
:103180001FF04AFA374B1B686FF02B0118461FF0EF
:1031900068FA344B1B68092118461FF0EBFD314BD0
:1031A0001B68012118461CF081FB2E4B1B68122165
:1031B00018461CF0CFFB2B4B1B6800220021184641
:1031C00025F0D6FE274B1C682048FEF793F90346EE
:1031D00000221946204625F0BEFD224B1B68002226
:1031E000FF21184625F0CBFD1E4B1C681E48FEF73C
:1031F00081F9034600221946204625F00CFE194BA2
:103200001B680022FF21184625F019FE154B1B688C
:1032100000220221184625F025FE124B1B68184695
:1032200055F0E4FC0346114A1360104B1B6842F250
:10323000D17118461FF08EFC0C4B1B6842F2D17105
:1032400016E000BF582EFF1F74D20C00625F5F00B3
:1032500085B91A00442EFF1F5C2EFF1F606B0C0007
:10326000F02DFF1F602EFF1F85F40800642EFF1F46
:1032700018461FF094FCBF4B1B684FF0FF311846F7
:103280001FF0CAF9BB4B1B686FF0340118461FF0E2
:10329000E8F9B84B1B68092118461FF06BFDB54BC8
:1032A0001B68B549184655F0B5FCB24B1C68B348CD
:1032B000FEF720F9034600221946204625F0F9FDC5
:1032C000AC4B1B680022FF21184625F006FEA94BD7
:1032D0001B680022AA49184625F012FEA94B1B685C
:1032E000184650F06BF90346A74A1360A64B1B68BB
:1032F000DC2118461FF02EFCA34B1B681721184633
:103300001FF04DFCA04B1B68002118461FF084F9EC
:103310009D4B1B68332118461FF0A3F99A4B1B687D
:10332000092118461FF026FD974B1B684FF480615A
:1033300018461CF0BBFA944B1B68102118461CF071
:1033400009FB914B1B6800220821184625F010FE4E
:103350008D4B1C688D48FEF7CDF8034600221946B8
:10336000204625F0F8FC884B1B680022FF211846F8
:1033700025F005FD844B1C688548FEF7BBF8034625
:1033800000221946204625F046FD7F4B1B6800228F
:10339000FF21184625F053FD7B4B1B6800220121BD
:1033A000184625F05FFD784B1B6800220F21184658
:1033B00025F06CFD734B1B68184655F017FC03464F
:1033C000744A1360734B1B6842F2D17118461FF0A8
:1033D000C1FB704B1B6842F2D17118461FF0DFFB36
:1033E0006C4B1B686FF0010118461FF015F9694B13
:1033F0001B68322118461FF034F9664B1B680921FF
:1034000018461FF0B7FC634B1B686349184655F01C
:1034100001FC604B1C686148FEF76CF80346002213
:103420001946204625F045FD5A4B1B680022FF2116
:10343000184625F052FD574B1B680022504918468C
:1034400025F05EFD4F4B1B68184654F0CDFA03463D
:10345000534A1360524B1B685249184654F0D8FA2D
:103460004F4B1B6842F2D17118461FF073FB4C4B57
:103470001B6842F2D17118461FF091FB484B1B6844
:10348000672118461FF0C8F8454B1B686FF03401E0
:1034900018461FF0E6F8424B1B68092118461FF03A
:1034A00069FC3F4B1B68404918461CF0FFF93C4B38
:1034B0001B68102118461CF04DFA324B1B68184649
:1034C0001CF0E0F90346394A1360384B1B68DC21D5
:1034D00018461FF03FFB354B1B68542118461FF060
:1034E0005EFB324B1B68012118461FF095F82F4BED
:1034F0001B684FF0FF3118461FF0B3F82B4B1B68C9
:10350000092118461FF036FC284B1B68102118466D
:103510001CF020FA254B1B6800220021184625F0DC
:1035200027FD224B1C680020FDF7E4FF0346002224
:103530001946204625F00FFC1C4B1B680022FF217A
:10354000184625F01CFC194B1C681948FDF7D2FFE2
:10355000034600221946204625F05DFC134B1B68EC
:103560000022FF21184625F06AFC104B1B68002240
:1035700020E000BF642EFF1F646B0C00F7F7FB0018
:103580004CFF0C00602EFF1F682EFF1F625F5F0064
:103590003B3B40006C2EFF1F746B0C00FAF81500CB
:1035A000702EFF1F6063070002000100742EFF1FD2
:1035B000584215000121184625F054FCC04B1B68E9
:1035C000184655F013FB0346BE4A1360BD4B1B68FB
:1035D00042F2D17118461FF0BDFABA4B1B6842F295
:1035E000D17118461FF0DBFAB64B1B686FF048012B
:1035F00018461FF011F8B34B1B686FF018011846FE
:103600001FF02FF8AF4B1B68092118461FF0B2FBC3
:10361000AC4B1B68AC49184655F0FCFAA94B1C682A
:103620006FF07F40FDF766FF0346002219462046F3
:1036300025F03FFCA34B1B680022FF21184625F014
:103640004CFCA04B1B680022A049184625F058FCF2
:103650009B4B1B68184655F0C9FA03469C4A1360F9
:103660009B4B1B6842F2D17118461FF073FA984BBE
:103670001B6842F2D17118461FF091FA944B1B68F7
:103680006FF0480118461EF0C7FF914B1B680021E0
:1036900018461EF0E6FF8E4B1B68092118461FF0E6
:1036A00069FB8B4B1B688B49184655F0B3FA884B66
:1036B0001C686FF07F40FDF71DFF0346002219468E
:1036C000204625F0F6FB824B1B680022FF2118469E
:1036D00025F003FC7E4B1B6800227C49184625F030
:1036E0000FFC774B1B68184655F080FA03467A4A60
:1036F0001360794B1B6842F2D17118461FF02AFA09
:10370000754B1B6842F2D17118461FF048FA724B94
:103710001B686FF0460118461EF07EFF6E4B1B685B
:103720001A2118461EF09DFF6B4B1B680921184695
:103730001FF020FB684B1B686849184655F06AFA71
:10374000654B1C686FF07F40FDF7D4FE03460022F6
:103750001946204625F0ADFB5F4B1B680022FF2178
:10376000184625F0BAFB5C4B1B68002257491846E7
:1037700025F0C6FB524B1B6818465BF057FD03460D
:10378000574A1360564B1B68892118461FF0E2F90F
:10379000534B1B6842F2D17118461FF000FA504B90
:1037A0001B68232118461EF037FF4D4B1B686FF036
:1037B000190118461EF055FF494B1B680921184690
:1037C0001FF0D8FA464B1B68464918465BF0C6FF07
:1037D000434B1B68012118465CF0D1F8404B1C6834
:1037E0000020FDF787FE034600221946204625F0FB
:1037F00060FB3B4B1B680022FF21184625F06DFB48
:10380000374B1B6800220221184625F09EFB344BE3
:103810001B6800222D49184625F072FB304B1B68AF
:1038200000220021184625F0A3FB2D4B1C682E48D2
:10383000FDF760FE034600221946204625F08BFA6C
:10384000274B1B680022FF21184625F098FA244BCD
:103850001C682648FDF74EFE034600221946204606
:1038600025F0D9FA1E4B1B680022FF21184625F0CF
:10387000E6FA1B4B1B6800220121184625F0F2FADC
:10388000174B1B6800220F21184625F0FFFA144B36
:103890001B6800220021184625F00DFA104B1B680A
:1038A00000220021184625F01AFA0D4B1B68002251
:1038B0000521184625F0D7F9094B1B6818E000BF11
:1038C000742EFF1F782EFF1F3C6B0C0074D20C006F
:1038D0007C2EFF1F7C6B0C00802EFF1F546B0C0096
:1038E000842EFF1F606B0C00625F5F0085B91A00B9
:1038F00000220521184625F0CAF9C14B1B6818465D
:103900005BF094FC0346BF4A1360BE4B1B688921E1
:1039100018461FF01FF9BB4B1B6842F2D1711846C5
:103920001FF03DF9B74B1B68232118461EF074FEAB
:10393000B44B1B68002118461EF093FEB14B1B6868
:10394000092118461FF016FAAE4B1B68AE491846FF
:103950005BF004FFAB4B1B68012118465CF00FF8CD
:10396000A84B1C680020FDF7C5FD03460022194640
:10397000204625F09EFAA34B1B680022FF21184623
:1039800025F0ABFA9F4B1B6800220221184625F058
:10399000DCFA9C4B1B6800229C49184625F0B0FAC3
:1039A000984B1B6800220021184625F0E1FA954B40
:1039B0001C689748FDF79EFD0346002219462046E5
:1039C00025F0C9F98F4B1B680022FF21184625F00E
:1039D000D6F98C4B1C688F48FDF78CFD03460022FE
:1039E0001946204625F017FA864B1B680022FF2156
:1039F000184625F024FA834B1B6800220121184643
:103A000025F030FA7F4B1B6800220F21184625F065
:103A10003DFA7C4B1B6800220021184625F04BF92B
:103A2000784B1B6800220021184625F058F9754B89
:103A30001B6800220521184625F015F9714B1B68FB
:103A400000220521184625F022F96D4B1B68184607
:103A50005BF0ECFB0346704A13606F4B1B688921D7
:103A600018461FF077F86C4B1B6842F2D17118466C
:103A70001FF095F8684B1B68232118461EF0CCFDFB
:103A8000654B1B681A2118461EF0EBFD624B1B6844
:103A9000092118461FF06EF95F4B1B685A491846FA
:103AA0005BF05CFE5C4B1B68012118465BF067FF16
:103AB000594B1C680020FDF71DFD034600221946E6
:103AC000204625F0F6F9544B1B680022FF211846CA
:103AD00025F003FA504B1B6800220221184625F0FE
:103AE00034FA4D4B1B6800224849184625F008FA65
:103AF000494B1B6800220021184625F039FA464B35
:103B00001C684348FDF7F6FC034600221946204690
:103B100025F021F9404B1B680022FF21184625F0B3
:103B20002EF93D4B1C683B48FDF7E4FC03460022A0
:103B30001946204625F06FF9374B1B680022FF21FC
:103B4000184625F07CF9344B1B68002201211846E9
:103B500025F088F9304B1B6800220F21184625F00C
:103B600095F92D4B1B6800220021184625F0A3F87B
:103B7000294B1B6800220021184625F0B0F8264B7F
:103B80001B6800220521184625F06DF8224B1B68A2
:103B900000220521184625F07AF8204B1B681846AC
:103BA0001BF070FE03461E4A13601D4B1B68A021CC
:103BB00018461EF0CFFF1A4B1B68272118461EF02F
:103BC000EEFF174B1B686FF0A10118461EF024FD95
:103BD000134B1B68722118461EF043FD104B1B68E7
:103BE000092118461FF0C6F80D4B1B681221184614
:103BF0001BF0B0FE0A4B1B6800220021184611E0A2
:103C0000742EFF1F882EFF1F606B0C0074D20C00F7
:103C1000625F5F0085B91A008C2EFF1FF02DFF1F19
:103C2000902EFF1F25F0A4F9BF4B1C68BF48FDF77D
:103C300061FC034600221946204625F08CF8BA4B59
:103C40001B680022FF21184625F099F8B64B1C6826
:103C5000B648FDF74FFC034600221946204625F0E2
:103C6000DAF8B14B1B680022FF21184625F0E7F86F
:103C7000AD4B1B6800220321184625F0F3F8AA4B30
:103C80001B6800220F21184625F000F9A64B1B687F
:103C900000220321184625F092F9A34B1B6800224D
:103CA0003221184625F078F9A14B1B68184654F0CC
:103CB0009DFF03469F4A13609E4B1B6842F2D171E1
:103CC00018461EF047FF9B4B1B6842F2D171184605
:103CD0001EF065FF974B1B686FF0A80118461EF099
:103CE0009BFC944B1B68742118461EF0BAFC914B48
:103CF0001B68092118461FF03DF88E4B1B688E4942
:103D0000184654F087FF8B4B1B68022118461BF0A6
:103D1000CDFD884B1C688948FDF7ECFB034600226B
:103D20001946204625F0C5F8824B1B680022FF216A
:103D3000184625F0D2F87E4B1B6818461BF0A2FDF2
:103D400003467F4A13607E4B1B68A02118461EF075
:103D500001FF7B4B1B68272118461EF020FF784B84
:103D60001B684FF0FF3118461EF056FC744B1B6861
:103D7000722118461EF075FC714B1B68092118460C
:103D80001EF0F8FF6E4B1B68122118461BF0E2FD77
:103D90006B4B1B6800220021184625F0E9F8684BA0
:103DA0001C686248FDF7A6FB034600221946204620
:103DB00024F0D1FF624B1B680022FF21184624F03B
:103DC000DEFF5F4B1C685F48FDF794FB0346002253
:103DD0001946204625F01FF8594B1B680022FF2189
:103DE000184625F02CF8564B1B6800220121184676
:103DF00025F038F8524B1B6800220321184625F0A5
:103E0000DEF84F4B1B6800223221184625F0C4F81B
:103E1000474B1B68184654F0E9FE03464A4A1360B4
:103E2000494B1B6842F2D17118461EF093FE464B77
:103E30001B6842F2D17118461EF0B1FE424B1B685E
:103E4000022118461EF0E8FB3F4B1B687421184600
:103E50001EF007FC3C4B1B68092118461EF08AFF28
:103E6000394B1B683949184654F0D4FE364B1B6851
:103E7000022118461BF01AFD334B1C682F48FDF732
:103E800039FB034600221946204625F012F82E4B36
:103E90001B680022FF21184625F01FF8244B1B68E1
:103EA000184653F0A1FD0346294A1360284B1B68AE
:103EB0002849184653F0ACFD254B1B6842F2D171DE
:103EC00018461EF047FE224B1B6842F2D17118467D
:103ED0001EF065FE1E4B1B68342118461EF09CFB2D
:103EE0001B4B1B686FF0050118461EF0BAFB184B00
:103EF0001B68092118461EF03DFF154B1B684FF04B
:103F0000011118461BF0D2FC114B1B6810211846FA
:103F10001BF020FD064B1B6818465BF087F9034633
:103F20000D4A13601AE000BF902EFF1F74747C00CE
:103F3000F02DFF1F942EFF1F886B0C00A7F30D00C0
:103F4000982EFF1F464650009C2EFF1F946B0C00BE
:103F5000A02EFF1FDC660C00A42EFF1FBF4B1B68AA
:103F6000662118461EF0F6FDBC4B1B68B0211846B2
:103F70001EF015FEB94B1B686FF0BB0118461EF012
:103F80004BFBB64B1B68052118461EF06AFBB34B72
:103F90001B68092118461EF0EDFEB04B1B6801217D
:103FA00018461BF083FCAD4B1C68AD48FDF7A2FA28
:103FB000034600221946204624F07BFFA74B1B68CE
:103FC0000022FF21184624F088FFA44B1B68002222
:103FD000A449184624F094FFA04B1B68002200213E
:103FE000184624F0C5FF9D4B1C689F48FDF782FAD8
:103FF000034600221946204624F0ADFE974B1B686D
:104000000022FF21184624F0BAFE944B1C680020C1
:10401000FDF770FA034600221946204624F0FBFE05
:104020008E4B1B680022FF21184624F008FF8B4BA3
:104030001B6800220121184624F014FF874B1C68DE
:104040008A48FDF757FA03464FF4002219462046E6
:1040500024F02FFF814B1B684FF40022FF211846EC
:1040600024F03BFF7D4B1B684FF4002200211846D3
:1040700024F06BFF7E4B1B68184653F0B5FC0346DB
:104080007C4A13607B4B1B687B49184653F0C0FC8D
:10409000784B1B6842F2D17118461EF05BFD754BE0
:1040A0001B6842F2D17118461EF079FD714B1B68F6
:1040B000352118461EF0B0FA6E4B1B6805211846D4
:1040C0001EF0CFFA6B4B1B68092118461EF052FEFA
:1040D000684B1B684FF0011118461BF0E7FB654B5E
:1040E0001B68102118461BF035FC614B1B681846F5
:1040F00053F07AFC0346614A1360604B1B686049C9
:10410000184653F085FC5D4B1B6842F2D17118468E
:104110001EF020FD594B1B6842F2D17118461EF06B
:104120003EFD564B1B686FF0BB0118461EF074FA3B
:10413000524B1B686FF05D0118461EF092FA4F4B10
:104140001B68092118461EF015FE4C4B1B684FF0EA
:10415000011118461BF0AAFB484B1B68102118469A
:104160001BF0F8FB424B1B6818461BF08BFB034609
:10417000444A1360434B1B68A02118461EF0EAFC1A
:10418000404B1B68272118461EF009FD3D4B1B685C
:10419000A02118461EF040FA3A4B1B6872211846BF
:1041A0001EF05FFA374B1B68092118461EF0E2FD2E
:1041B000344B1B68122118461BF0CCFB314B1B689B
:1041C00000220021184624F0D3FE2E4B1C682E48F6
:1041D000FDF790F9034600221946204624F0BBFD66
:1041E000284B1B680022FF21184624F0C8FD254BF0
:1041F0001C682648FDF77EF9034600221946204632
:1042000024F009FE1F4B1B680022FF21184624F0F2
:1042100016FE1C4B1B6800220121184624F022FECA
:10422000184B1B6800220321184624F0C8FE154BCA
:104230001B6800223221184624F0AEFE0C4B1B688E
:10424000184654F0D3FC0346114A1360104B1B6808
:1042500042F2D17118461EF07DFC1BE0A42EFF1F18
:10426000FAFAFD004CFF0C0042133A00FEFEFF007C
:10427000F02DFF1FA82EFF1FE8690C00AC2EFF1FBA
:10428000B8220A00B02EFF1F74747C00464650000E
:10429000B42EFF1FBD4B1B6842F2D17118461EF0B1
:1042A0007EFCBA4B1B68A12118461EF0B5F9B74B2E
:1042B0001B68732118461EF0D4F9B44B1B68092102
:1042C00018461EF057FDB14B1B68B149184654F013
:1042D000A1FCAE4B1B68022118461BF0E7FAAB4B62
:1042E0001C68AC48FDF706F9034600221946204633
:1042F00024F0DFFDA54B1B680022FF21184624F0A7
:10430000ECFDA54B1B68184643F09EFB0346A34AF1
:104310001360A24B1B6840F2DB1118461EF01AFC1A
:104320009E4B1B68742118461EF039FC9B4B1B6882
:10433000002118461EF070F9984B1B684B21184657
:104340001EF08FF9954B1B68092118461EF012FDCF
:10435000924B1B68012118461BF0A8FA8F4B1B6873
:1043600000221421184624F003FE8C4B1C688C4854
:10437000FDF7C0F8034600221946204624F0EBFC66
:10438000864B1B680022FF21184624F0F8FC834B63
:104390001B6800220121184624F018FD7F4B1C6881
:1043A0008048FDF7A7F8034600221946204624F06E
:1043B00032FD7A4B1B680022FF21184624F03FFD96
:1043C000764B1B6800220221184624F04BFD724BED
:1043D0001B6818463DF058FE0346734A1360724B43
:1043E0001868132304224FF4FD613DF061FE6E4B0B
:1043F0001B6804224FF4FD6118463DF077FE6A4BBE
:104400001B6818463EF02CFA7860674B1B68B22197
:1044100018461EF09FFB644B1B68B22118461EF025
:10442000BEFB614B1B68982118461EF0F5F85E4BE9
:104430001B686FF00F0118461EF013F95A4B1B68EA
:10444000092118461EF096FC574B1B68012118469F
:104450001BF02CFA504B1B6818465AF0E7FE034637
:10446000524A1360514B1B6840F2A91118461EF0C6
:1044700071FB4E4B1B6842F2D17118461EF08FFB48
:104480004A4B1B68002118461EF0C6F8474B1B68B4
:104490006FF02D0118461EF0E4F8444B1B6809210B
:1044A00018461EF067FC414B1B68414918465BF0FB
:1044B000BDF83E4B1B68012118461BF0F7F93B4B3A
:1044C0001B68122118461BF045FA384B1B68022165
:1044D000184620F03EFD354B1C683648FDF70AF8BB
:1044E000034600221946204624F0E3FC2F4B1B68AC
:1044F0000022FF21184624F0F0FC2C4B1C682E48AB
:10450000FCF7F8FF034600221946204624F023FC5E
:10451000264B1B680022FF21184624F030FC274B55
:10452000186800230022264916F098FF254B1868CA
:1045300000230022244916F091FF244B1868002321
:104540000022234916F08AFF224B1868002300221C
:10455000214916F083FF214B1868002300222049CF
:1045600016F07CFF1F4B1868002300221E4916F02E
:1045700075FF1E4B1868002300221D4916F06EFFC0
:104580001C4B18680023002236E000BFB42EFF1F2A
:10459000A46B0C00A7F30D00F02DFF1FB82EFF1F1A
:1045A000ADADB10073738400BC2EFF1FC02EFF1F82
:1045B000B06B0C002D2D8B00B0E24B00F82DFF1FCF
:1045C000A9550000FC2DFF1FF1550000082EFF1F0C
:1045D00035560000102EFF1F7D560000142EFF1FC1
:1045E000D5560000182EFF1F2D5700001C2EFF1F50
:1045F00095570000202EFF1F374916F02FFF374B2D
:10460000186800230022364916F028FF354B186839
:1046100000230022344916F021FF344B1868002390
:104620000022334916F01AFF324B1868002300228B
:10463000314916F013FF314B18680023002230492E
:1046400016F00CFF2F4B1868002300222E4916F09D
:1046500005FF2E4B1868002300222D4916F0FEFEA0
:104660002C4B1868002300222B4916F0F7FE2B4B29
:104670001868002300222A4916F0F0FE294B18681A
:1046800000230022284916F0E9FE284B1868002371
:104690000022274916F0E2FE264B1868002300226C
:1046A000254916F0DBFE254B18680023002224491B
:1046B00016F0D4FE234B186800230022224916F07E
:1046C000CDFE224B186800230022214916F0C6FEB9
:1046D00000BF0C37BD4690BDFD570000242EFF1FC4
:1046E00039580000382EFF1F75580000402EFF1F5C
:1046F000BD580000542EFF1FF9580000582EFF1F10
:10470000615900005C2EFF1FC9590000682EFF1F71
:10471000315A0000702EFF1F795A0000842EFF1FAF
:10472000B55A0000882EFF1F1D5B00008C2EFF1F56
:10473000855B0000942EFF1FED5B00009C2EFF1F89
:104740007D5C0000B42EFF1F115D0000B82EFF1F1E
:10475000495D000080B485B000AF78607B681B0ABB
:104760009BB223F4FF6323F007039AB27B685B09D3
:104770009BB203F4FC639BB213439AB27B68DB08E1
:104780009BB203F01F039BB213439BB2BB81BB8957
:1047900018461437BD465DF8047B704790B583B06A
:1047A00002AF00201BF06EF80346BC4A1360BB4BFF
:1047B0001B68102118461BF0CDF8B84B1C68B84890
:1047C000FFF7C8FF034600221946204624F0C3FA2B
:1047D000B24B1B680022FF21184624F0D0FAAF4BE1
:1047E0001B68184653F000F90346AE4A1360AD4B00
:1047F0001B68AD49184653F00BF9AA4B1B6842F2EF
:10480000D17118461EF0A6F9A64B1B6842F2D17171
:1048100018461EF0C4F9A34B1B686FF0020118463E
:104820001DF0FAFE9F4B1B68022118461DF019FF70
:104830009C4B1B68022118461EF09CFA994B1B6882
:104840004FF4803118461BF031F8964B1B6810214D
:1048500018461BF07FF8914B1B68184654F0C6F9B8
:104860000346924A1360914B1B6842F2D17118467D
:104870001EF070F98D4B1B6842F2D17118461EF084
:104880008EF98A4B1B686FF0010118461DF0C4FEBB
:10489000864B1B686FF0050118461DF0E2FE834B46
:1048A0001B68092118461EF065FA804B1B68804979
:1048B000184654F0AFF97D4B1B68022118461AF0D8
:1048C000F5FF7A4B1B68102118461BF043F8774B15
:1048D0001C687848FFF73EFF034600221946204631
:1048E00024F0E7FA714B1B680022FF21184624F0E0
:1048F000F4FA6E4B1B6800220221184624F025FBB7
:104900006A4B1B6800220121184624F00BFB674B01
:104910001B6800226849184624F0F2FA5F4B1B68B6
:10492000184654F063F90346644A1360634B1B68EE
:1049300042F2D17118461EF00DF9604B1B6842F22D
:10494000D17118461EF02BF95C4B1B6801211846EB
:104950001DF062FE594B1B681F2118461DF081FE99
:10496000564B1B68092118461EF004FA534B1B686E
:104970005349184654F04EF9504B1B68002202214F
:10498000184624F0E2FA454B1B68184642F004FD35
:1049900003464C4A13604B4B1868002300934A4B64
:1049A0000022002142F00CFD464B1B6834211846C2
:1049B0001EF0F5F8434B1B6842F2D17118461EF009
:1049C000C9F8404B1B680B2118461DF025FE3D4BD6
:1049D0001B685B2118461DF044FE3A4B1B680921F9
:1049E00018461EF0C7F92D4B1B6818465AF01EFCDE
:1049F0000346364A1360354B1B6840F2A91118462E
:104A00001EF0A8F8314B1B686D2118461EF0C7F840
:104A10002E4B1B68012118461DF0FEFD2B4B1B6819
:104A2000492118461DF01DFE284B1B680921184618
:104A30001EF0A0F9254B1B68254918465AF0F6FDD3
:104A4000224B1B68012118461AF030FF1F4B1B68D0
:104A5000122118461AF07EFF1C4B1B6802211846D3
:104A600020F077FA194B1C681A48FFF773FE0346CB
:104A700000221946204624F01CFA144B1B68002221
:104A8000FF21184624F029FA104B1C681248FFF742
:104A900061FE03460022194620461FE0D82DFF1F65
:104AA000625F5F00DC2DFF1FF0EF0900E02DFF1FAC
:104AB000986C0C00A0A40C0040C60D00E42DFF1F54
:104AC000AC6C0C00E82DFF1F20110A00EC2DFF1F1D
:104AD000D46C0C002D2D8B00B0E24B0024F03BF980
:104AE0000C4B1B680022FF21184624F048F90A4BA2
:104AF000186800230022094916F0B0FC084B18681A
:104B000000230022074916F0A9FC00BF0437BD4668
:104B100090BD00BFEC2DFF1FE02DFF1F1D550000B5
:104B2000E82DFF1F6555000080B483B000AF7860AA
:104B300039603A687B68DA6200BF0C37BD465DF8C1
:104B4000047B704780B483B000AF786039603B6805
:104B50005A427B681A6300BF0C37BD465DF8047B80
:104B6000704780B485B000AFF860B9607A60FB68C8
:104B7000BA681A62FB68BA685A62FB687A689A6215
:104B800000BF1437BD465DF8047B704780B483B026
:104B900000AF786039607B687A681A607B683A6831
:104BA0005A6000BF0C37BD465DF8047B704780B487
:104BB00083B000AF786039607B683A68DA6100BF23
:104BC0000C37BD465DF8047B704780B483B000AFFE
:104BD000786039607B683A685A6100BF0C37BD461F
:104BE0005DF8047B704780B483B000AF78603960B3
:104BF0007B683A681A6100BF0C37BD465DF8047BDC
:104C0000704780B483B000AF786039607B683A68E1
:104C10009A6300BF0C37BD465DF8047B704780B4D3
:104C200083B000AF786039607B683A685A6300BF30
:104C30000C37BD465DF8047B704780B483B000AF8D
:104C400078600B467B807B687A88A3F8402000BFA1
:104C50000C37BD465DF8047B704780B483B000AF6D
:104C6000786039607B683A68DA6300BF0C37BD460C
:104C70005DF8047B704780B483B000AF78600B466A
:104C8000FB707A6892F84230F97861F3000382F899
:104C9000423000BF0C37BD465DF8047B704780B4DE
:104CA00083B000AF786039607B683A689A6100BF72
:104CB0000C37BD465DF8047B7047000080B594B0AA
:104CC00000AF78603960102049F050F9F864FB6C4F
:104CD0007A681A60FB6C4FF0FF32DA6007F1080364
:104CE000184646F047FF07F1080314211846FFF75E
:104CF0001BFF07F10803F96C1846FFF7D0FF07F117
:104D0000080325491846FFF741FF07F10803002271
:104D100000211846FFF725FF07F108031F49184631
:104D2000FFF745FF3A6807F1080311461846FFF7F9
:104D300009FF07F108031A491846FFF754FF07F166
:104D4000080300211846FFF75CFF07F10803002164
:104D50001846FFF764FF07F1080300211846FFF724
:104D60006CFF07F1080300211846FFF776FF07F1F3
:104D7000080301211846FFF77EFF07F108030949E0
:104D80001846FFF722FF07F10803184646F018FF00
:104D900000BF5037BD4680BDA16B0000BFBD040001
:104DA000596B0000EB6B000080B594B000AF7860E9
:104DB0003960102049F0DAF8F864FB6C7A681A6000
:104DC000FB6C4FF0FF32DA6007F10803184646F03B
:104DD000D1FE07F1080314211846FFF7A5FE07F1DD
:104DE0000803F96C1846FFF75AFF07F10803254935
:104DF0001846FFF7CBFE07F10803002200211846F2
:104E0000FFF7AFFE07F108031F491846FFF7CFFE73
:104E10003A6807F1080311461846FFF793FE07F1B9
:104E200008031A491846FFF7DEFE07F108030021C0
:104E30001846FFF7E6FE07F1080300211846FFF7C2
:104E4000EEFE07F1080300211846FFF7F6FE07F112
:104E5000080300211846FFF700FF07F108030021AF
:104E60001846FFF708FF07F1080309491846FFF73E
:104E7000ACFE07F10803184646F0A2FE00BF50370B
:104E8000BD4680BDA16B0000BFBD0400596B000092
:104E9000EB6B000080B594B000AF786039601020F3
:104EA00049F064F8F864FB6C7A681A60FB6C4FF0A8
:104EB000FF32DA6007F10803184646F05BFE07F19F
:104EC000080314211846FFF72FFE07F10803F96CB9
:104ED0001846FFF7E4FE07F1080325491846FFF7D7
:104EE00055FE07F10803002200211846FFF739FE9E
:104EF00007F108031F491846FFF759FE3A6807F102
:104F0000080311461846FFF71DFE07F108031A496A
:104F10001846FFF768FE07F1080300211846FFF75F
:104F200070FE07F1080300211846FFF778FE07F12D
:104F3000080300211846FFF780FE07F1080300214F
:104F40001846FFF78AFE07F1080300211846FFF70D
:104F500092FE07F1080309491846FFF736FE07F1EC
:104F60000803184646F02CFE00BF5037BD4680BDF2
:104F7000796B00000BBE0400596B0000C96B000088
:104F800080B594B000AF78603960102048F0EEFF33
:104F9000F864FB6C7A681A60FB6C4FF0FF32DA60E1
:104FA00007F10803184646F0E5FD07F10803C8219C
:104FB0001846FFF7B9FD07F10803F96C1846FFF72B
:104FC0006EFE07F1080325491846FFF7DFFD07F1DC
:104FD0000803002232211846FFF7C3FD07F108033A
:104FE0001F491846FFF7E3FD3A6807F10803114629
:104FF0001846FFF7A7FD07F108031A491846FFF7FF
:10500000F2FD07F1080300211846FFF7FAFD07F14A
:10501000080300211846FFF702FE07F108030021EC
:105020001846FFF70AFE07F1080300211846FFF7AC
:1050300014FE07F1080301211846FFF71CFE07F1D3
:10504000080309491846FFF7C0FD07F10803184691
:1050500046F0B6FD00BF5037BD4680BDA16B0000D5
:1050600073BE0400596B0000EB6B000080B594B078
:1050700000AF78603960102048F078FFF864FB6C6E
:105080007A681A60FB6C4FF0FF32DA6007F10803B0
:10509000184646F06FFD07F10803C8211846FFF7D0
:1050A00043FD07F10803F96C1846FFF7F8FD07F117
:1050B000080326491846FFF769FD07F10803322265
:1050C00000211846FFF74DFD07F108032049184657
:1050D000FFF76DFD3B6864331A4607F1080311467C
:1050E0001846FFF72FFD07F108031A491846FFF786
:1050F0007AFD07F10803C8211846FFF782FD07F182
:10510000080364211846FFF78AFD07F1080302210E
:105110001846FFF792FD07F1080300211846FFF734
:105120009CFD07F1080300211846FFF7A4FD07F1D5
:10513000080309491846FFF748FD07F10803184618
:1051400046F03EFD00BF5037BD4680BDA16B00005C
:10515000D9BE0400596B0000EB6B000080B594B021
:1051600000AF78603960102048F000FFF864FB6CF5
:105170007A681A60FB6C4FF0FF32DA6007F10803BF
:10518000184646F0F7FC07F10803C8211846FFF758
:10519000CBFC07F10803F96C1846FFF780FD07F117
:1051A000080326491846FFF7F1FC07F108033222ED
:1051B00000211846FFF7D5FC07F1080320491846DF
:1051C000FFF7F5FC3B6864331A4607F10803114604
:1051D0001846FFF7B7FC07F108031A491846FFF70E
:1051E00002FD07F10803C8211846FFF70AFD07F181
:1051F000080364211846FFF712FD07F10803022196
:105200001846FFF71AFD07F1080300211846FFF7BB
:1052100024FD07F1080300211846FFF72CFD07F1D4
:10522000080309491846FFF7D0FC07F108031846A0
:1052300046F0C6FC00BF5037BD4680BDA16B0000E4
:10524000D9BE0400596B0000EB6B000080B594B030
:1052500000AF78603960102048F088FEF864FB6C7D
:105260007A681A60FB6C4FF0FF32DA6007F10803CE
:10527000184646F07FFC07F108034FF47A71184690
:10528000FFF752FC07F10803F96C1846FFF707FD1A
:1052900007F1080325491846FFF778FC07F10803D2
:1052A00000226FF009011846FFF75BFC07F10803C5
:1052B0001F491846FFF77BFC3A6807F108031146BF
:1052C0001846FFF73FFC07F108031A491846FFF795
:1052D0008AFC07F1080300211846FFF792FC07F14A
:1052E000080300211846FFF79AFC07F10803002184
:1052F0001846FFF7A2FC07F1080300211846FFF744
:10530000ACFC07F1080300211846FFF7B4FC07F1D5
:10531000080309491846FFF758FC07F10803184627
:1053200046F04EFC00BF5037BD4680BD796B000093
:10533000D9BE0400596B0000C96B000080B594B061
:1053400000AF78603960102048F010FEF864FB6C04
:105350007A681A60FB6C4FF0FF32DA6007F10803DD
:10536000184646F007FC07F108034FF47A71184617
:10537000FFF7DAFB07F10803F96C1846FFF78FFC1B
:1053800007F1080325491846FFF700FC07F1080359
:1053900000226FF031011846FFF7E3FB07F1080325
:1053A0001F491846FFF703FC3A6807F10803114646
:1053B0001846FFF7C7FB07F108031A491846FFF71D
:1053C00012FC07F1080300211846FFF71AFC07F149
:1053D000080300211846FFF722FC07F1080300210B
:1053E0001846FFF72AFC07F1080300211846FFF7CB
:1053F00034FC07F1080300211846FFF73CFC07F1D5
:10540000080309491846FFF7E0FB07F108031846AF
:1054100046F0D6FB00BF5037BD4680BDA16B0000F3
:10542000D9BE0400596B0000EB6B000080B594B04E
:1054300000AF78603960102048F098FDF864FB6C8C
:105440007A681A60FB6C4FF0FF32DA6007F10803EC
:10545000184646F08FFB07F108034FF47A7118469F
:10546000FFF762FB07F10803F96C1846FFF717FC1A
:1054700007F1080325491846FFF788FB07F10803E1
:105480000022C8211846FFF76CFB07F108032049EA
:105490001846FFF78CFB3A6807F1080311461846D7
:1054A000FFF750FB07F108031A491846FFF79BFB6B
:1054B00007F1080300211846FFF7A3FB07F10803D3
:1054C00000211846FFF7ABFB07F10803002118463F
:1054D000FFF7B3FB07F1080300211846FFF7BDFBF8
:1054E00007F1080301211846FFF7C5FB07F1080380
:1054F00009491846FFF769FB07F10803184646F00B
:105500005FFB00BF5037BD4680BD00BF796B000018
:10551000D9BE0400596B0000C96B000080B584B08F
:1055200000AF7860786815F03BFF0346FB7378683E
:1055300015F01EFFB860FB7B012B0CD1084B1B68DC
:1055400000211846FFF7BAFB054B1B680222012118
:10555000184601F0D2FA00BF1037BD4680BD00BF2B
:10556000EC2DFF1F80B586B002AF7860786815F02B
:1055700017FF0346FB73786815F0FAFEB860FB7BF3
:10558000072B08D1064B009300234FF4FA72052134
:10559000044801F08AFA00BF1037BD4680BD00BF45
:1055A0003D150000F02DFF1F80B584B000AF78607E
:1055B000786815F0F5FE0346FB73786815F0D8FEA1
:1055C000B860FB7B072B0CD1084B1B6800211846E9
:1055D000FFF7EAFB054B1B6802220121184601F088
:1055E0008CFA00BF1037BD4680BD00BFC02EFF1F24
:1055F00080B586B002AF7860786815F0D1FE0346BA
:10560000FB73786815F0B4FEB860FB7B072B08D1FC
:10561000064B009300234FF4FA720621044801F070
:1056200044FA00BF1037BD4680BD00BF9D47000053
:10563000D82DFF1F80B584B000AF7860786815F072
:10564000AFFE0346FB73786815F092FEB860FB7BF3
:10565000072B0CD1084B1B6800211846FFF71AFCDA
:10566000054B1B6802220121184601F046FA00BFD3
:105670001037BD4680BD00BFBC2EFF1F80B584B073
:1056800000AF7860786815F08BFE0346FB7378688E
:1056900015F06EFEB860FB7B072B06D10B4B1B6829
:1056A0000B4A0021184601F0EFF9FB7B072B02D1D2
:1056B000786800F0A1FBFB7B1C2B02D1786800F01E
:1056C0002FFC00BF1037BD4680BD00BF282EFF1F36
:1056D000BC6D0C0080B584B000AF7860786815F0C0
:1056E0005FFE0346FB73786815F042FEB860FB7BF3
:1056F000072B06D10B4B1B680B4A0021184601F003
:10570000C3F9FB7B072B02D1786800F05FFCFB7BC1
:105710001C2B02D1786800F0FDFC00BF1037BD469D
:1057200080BD00BF282EFF1FE06D0C0080B584B047
:1057300000AF7860786815F033FE0346FB73786835
:1057400015F016FEB860FB7B072B14D10F4B1B68BE
:105750000F4A12681146184601F0C2F90B4B1B683C
:1057600000211846FFF70CFC084B1B6802220121A0
:10577000184601F0C2F9FB7B1C2B02D1786800F0BF
:1057800025FD00BF1037BD4680BD00BFB82EFF1FEE
:10579000182EFF1F80B584B000AF7860786815F0D0
:1057A000FFFD0346FB73786815F0E2FDB860FB7BF4
:1057B000072B14D10F4B1B680F4A1268114618466D
:1057C00001F08EF90B4B1B6800211846FFF7D8FB40
:1057D000084B1B6802220121184601F08EF9FB7B61
:1057E0001C2B02D1786800F057FD00BF1037BD4672
:1057F00080BD00BFB82EFF1F1C2EFF1F80B584B0D8
:1058000000AF7860786815F0CBFD0346FB737868CD
:1058100015F0AEFDB860FB7B072B06D1054B1B686E
:1058200002220121184601F068F900BF1037BD4679
:1058300080BD00BF302EFF1F80B584B000AF786000
:10584000786815F0ADFD0346FB73786815F090FDA0
:10585000B860FB7B072B06D1054B1B680222012198
:10586000184601F04AF900BF1037BD4680BD00BFA1
:10587000602EFF1F80B584B000AF7860786815F0A7
:105880008FFD0346FB73786815F072FDB860FB7BF3
:10589000072B06D1084B1B6802220121184601F094
:1058A0002CF9FB7B072B02D1786800F05FFD00BF6D
:1058B0001037BD4680BD00BF302EFF1F80B584B0BD
:1058C00000AF7860786815F06BFD0346FB7378686D
:1058D00015F04EFDB860FB7B072B06D1054B1B680E
:1058E00002220121184601F008F900BF1037BD4619
:1058F00080BD00BF302EFF1F80B584B000AF786040
:10590000786815F04DFD0346FB73786815F030FD9F
:10591000B860FB7B072B14D10F4B1B680F4A126832
:105920001146184601F0DCF80B4B1B6800211846A5
:10593000FFF726FB084B1B6802220121184601F0E5
:10594000DCF8FB7B0F2B02D1786800F0DDFD00BF97
:105950001037BD4680BD00BFB82EFF1F542EFF1F5D
:1059600080B584B000AF7860786815F019FD034603
:10597000FB73786815F0FCFCB860FB7B072B14D137
:105980000F4B1B680F4A12681146184601F0A8F821
:105990000B4B1B6800211846FFF7F2FA084B1B68F7
:1059A00002220121184601F0A8F8FB7B0F2B02D13F
:1059B000786800F0FBFD00BF1037BD4680BD00BF1A
:1059C000B82EFF1F582EFF1F80B584B000AF78603F
:1059D000786815F0E5FC0346FB73786815F0C8FCA1
:1059E000B860FB7B072B14D10F4B1B680F4A126862
:1059F0001146184601F074F80B4B1B68002118463D
:105A0000FFF7BEFA084B1B6802220121184601F07D
:105A100074F8FB7B0F2B02D1786800F015FE00BFF5
:105A20001037BD4680BD00BFB82EFF1F5C2EFF1F84
:105A300080B584B000AF7860786815F0B1FC03469B
:105A4000FB73786815F094FCB860FB7B072B06D1DC
:105A5000084B1B6802220121184601F04EF8FB7B1F
:105A6000072B02D1786800F03DFE00BF1037BD461D
:105A700080BD00BF602EFF1F80B584B000AF78608E
:105A8000786815F08DFC0346FB73786815F070FCA0
:105A9000B860FB7B072B06D1054B1B680222012156
:105AA000184601F02AF800BF1037BD4680BD00BF80
:105AB000602EFF1F80B584B000AF7860786815F065
:105AC0006FFC0346FB73786815F052FCB860FB7BF3
:105AD000072B14D10F4B1B680F4A1268114618464A
:105AE00000F0FEFF0B4B1B6800211846FFF748FA39
:105AF000084B1B6802220121184600F0FEFFFB7BC9
:105B00000F2B02D1786800F0D1FE00BF1037BD46E0
:105B100080BD00BFB82EFF1F842EFF1F80B584B04C
:105B200000AF7860786815F03BFC0346FB7378683B
:105B300015F01EFCB860FB7B072B14D10F4B1B68C4
:105B40000F4A12681146184600F0CAFF0B4B1B683B
:105B500000211846FFF714FA084B1B6802220121A6
:105B6000184600F0CAFFFB7B0F2B02D1786800F0CB
:105B7000F1FE00BF1037BD4680BD00BFB82EFF1F2D
:105B8000882EFF1F80B584B000AF7860786815F06C
:105B900007FC0346FB73786815F0EAFBB860FB7BF3
:105BA000072B14D10F4B1B680F4A12681146184679
:105BB00000F096FF0B4B1B6800211846FFF7E0F939
:105BC000084B1B6802220121184600F096FFFB7B60
:105BD0000F2B02D1786800F009FF00BF1037BD46D7
:105BE00080BD00BFB82EFF1F8C2EFF1F80B584B074
:105BF00000AF7860786815F0D3FB0346FB737868D4
:105C000015F0B6FBB860FB7B072B0CD1184B1B685B
:105C100002220121184600F070FF154B1B6800217D
:105C20001846FFF713FBFB7B072B0CD1114B1B68AE
:105C300002220121184600F060FF0E4B1B68002174
:105C40001846FFF77BFBFB7B072B0CD10A4B1B682D
:105C500002220121184600F050FF074B1B6800216B
:105C60001846FFF7E3FB00BF1037BD4680BD00BFFD
:105C70000C2EFF1F282EFF1F2C2EFF1F80B584B077
:105C800000AF7860786815F08BFB0346FB7378688B
:105C900015F06EFBB860FB7B072B05D1174B1B681B
:105CA00000211846FFF7E2F9FB7B072B0DD1144BBF
:105CB0001B6802220121184600F01FFF114B1B68D0
:105CC00002220121184600F018FFFB7B072B06D1AA
:105CD0000D4B1B6802220121184600F00EFFFB7BD2
:105CE000072B06D1094B1B6802220121184600F040
:105CF00004FF00BF1037BD4680BD00BF982EFF1FB8
:105D0000A02EFF1FAC2EFF1FA42EFF1FA82EFF1FCB
:105D100080B584B000AF7860786815F041FB034629
:105D2000FB73786815F024FBB860FB7B072B05D16B
:105D3000044B1B6800211846FFF710FA00BF10370C
:105D4000BD4680BDB02EFF1F80B584B000AF786027
:105D5000786815F025FB0346FB73786815F008FB9F
:105D6000B860FB7B1F2B06D1054B1B68022201216B
:105D7000184600F0C2FE00BF1037BD4680BD00BF10
:105D8000B82EFF1F90B585B002AF15F031FB03466A
:105D9000154A136045F052FD7860052047F0AAF9D6
:105DA0000446002047F0A6F90246104B009300235A
:105DB000214678683AF036FE38603968786814F021
:105DC0007AFEFEF7EBFCFBF7B9FB002019F05AFD59
:105DD0000346074A1360074B1B68184614F031FE50
:105DE00000BF0C37BD4690BDD42DFF1F94340D006D
:105DF000C42EFF1FD82DFF1F80B58AB000AF78607A
:105E000000237B6200233B620023FB611BE03E4AD0
